:020000040800F2
:100000003805002001010008810600080D030008E2
:100010007D060008F10100081B1600080000000022
:10002000000000000000000000000000910F000828
:10003000F501000800000000210900081D1100085A
:100040001B0100081B0100081B010008E10C00084F
:100050001B0100081B0100081B0100081B01000810
:100060001B0100081B0100081B0100081B01000800
:100070001B0100081B0100081B0100081B010008F0
:100080001B0100081B0100081B0100081B010008E0
:100090001B0100081B0100081B0100081B010008D0
:1000A0001B0100081B0100081B0100081B010008C0
:1000B0001B010008811100081B0100081B0100083A
:1000C0001B0100081B0100081B0100081B010008A0
:1000D0001B0100081B0100081B0100081113000888
:1000E0001B0100081B0100081B010008DFF80CD0F1
:1000F00000F048F8004800471D19000838050020A6
:100100000648804706480047FEE7FEE7FEE7FEE7B1
:10011000FEE7FEE7FEE7FEE7FEE7FEE72111000847
:10012000ED00000840EA01039B0703D009E008C97D
:10013000121F08C0042AFAD203E011F8013B00F8AC
:10014000013B521EF9D27047421C10F8011B0029D6
:10015000FBD1801A704730B50B46014600202022A3
:10016000012409E021FA02F59D4205D303FA02F5C4
:10017000491B04FA02F52844151EA2F10102F1DC24
:1001800030BD0000064C074D06E0E06840F001037A
:1001900094E8070098471034AC42F6D3FFF7AAFF63
:1001A000F82300081824000810B5012000F0EAFB2D
:1001B000002000F0E7FB10BD08B5014600200090CC
:1001C000034800900098084400900098008808BDFB
:1001D000006C004008B500220092044A0092009A88
:1001E00002440092009A116008BD0000006C0040BB
:1001F00000BFFEE770472DE9F041024600250026CA
:10020000002000230024002791F803C00CF00F0504
:1002100091F803C00CF0100CBCF1000F03D091F862
:1002200002C04CEA050591F800C0BCF1000F31D0C6
:10023000146800202BE04FF0010C0CFA00F3B1F829
:1002400000C00CEA03069E4220D183004FF00F0C41
:100250000CFA03F7BC4305FA03FC4CEA040491F8DA
:1002600003C0BCF1280F06D14FF0010C0CFA00FCC2
:10027000C2F814C00AE091F803C0BCF1480F05D1E0
:100280004FF0010C0CFA00FCC2F810C0401C08280A
:10029000D1D31460B1F800C0BCF1FF0F34DD546855
:1002A00000202EE000F1080C4FF0010808FA0CF3D2
:1002B000B1F800C00CEA03069E4221D183004FF042
:1002C0000F0C0CFA03F7BC4305FA03FC4CEA0404D8
:1002D00091F803C0BCF1280F05D100F1080C08FA11
:1002E0000CF8C2F8148091F803C0BCF1480F07D194
:1002F00000F1080C4FF0010808FA0CF8C2F8108061
:10030000401C0828CED35460BDE8F08100BFFEE752
:1003100070B502460024002500230020958A138B27
:100320001B0445EA030626F07F4404EA01068E42D8
:1003300001D1012000E0002070BD21B1028842F00F
:100340000102028004E002884FF6FE731A40028028
:100350007047000000B585B00121480500F0E2FAC1
:100360000121082000F0FEFAC020ADF800000320B3
:100370008DF802001C208DF8030069461148FFF734
:100380003AFF114800F024F80020ADF808004BF6C1
:10039000FF70ADF80A003020ADF80C004FF480601B
:1003A000ADF80E000001ADF81000084801900121E1
:1003B0000548FFF7C2FF01A9034800F05BF805B04C
:1003C00000BD0000000C014000540040801A0600EF
:1003D00010B504460B48844209D10121480500F0BC
:1003E000B1FA00214FF4001000F0ACFA08E001214E
:1003F000880500F0A7FA00214FF4800000F0A2FA6F
:1004000010BD00000054004021B1028842F4807207
:10041000028004E002884FF6FF631A4002807047B2
:1004200021B1028842F40072028004E002884FF693
:10043000FF531A40028070470CB50246002000238B
:100440000193009300920B0F019321F07F41019BD8
:100450001BB1009B1433009303E0090C009B18337D
:100460000093009B1B680B400BB1012000E00020B3
:100470000CBD00002DE9F04385B004460D46002672
:10048000B1460427DFF8CC80A6884FF6C07006403E
:10049000684600F07DFADDF808802F48B8FBF0F0E0
:1004A0001FFA80F946EA0906A68020884FF6FE71F9
:1004B0000840208000262949286888420CD82868EE
:1004C0004000B8FBF0F087B2042F00DA04273E4367
:1004D00009F10100208427E0E8884BF6FF7188428B
:1004E00006D1286800EB4000B8FBF0F087B209E0C5
:1004F000286800EBC00101EB0010B8FBF0F087B2F8
:1005000047F48047C7F30B0008B947F0010747F4E9
:10051000004006434FF4967009FB00F04FF47A71E7
:1005200090FBF1F0401C2084A683208840F001005D
:10053000208026884FF6F5300640A8886989084350
:1005400006432680A88929890843208105B0BDE893
:10055000F083000000127A0040420F00A0860100E4
:1005600012B141F0010102E04FF6FE731940018221
:10057000704701827047000070B504460D4600BF09
:100580004FF400311C48FFF757FF0028F8D1012134
:100590001948FFF739FF00BF18491748FFF7B8FEA1
:1005A0000028F9D0002278211348FFF7D9FF00BFB7
:1005B00013491148FFF7ACFE0028F9D021460E4838
:1005C000FFF7D7FF00BF0E49891C0B48FFF7A0FEBD
:1005D0000028F8D029460848FFF7CBFF00BF08499C
:1005E000891C0548FFF794FE0028F8D00121024835
:1005F000FFF716FF70BD000000540040010003002B
:10060000820007000146CA1701EB92729210A1EB1B
:10061000820292B9642091FBF0F200FB121050B9F3
:100620004FF4C87091FBF0F200FB121008B90120E2
:1006300070470020FCE70120FAE70020F8E70000FF
:1006400008B50121442000F08DF91820ADF8000014
:1006500048208DF8030069460648FFF7CCFD0120CD
:10066000ADF8000028208DF8030069460248FFF726
:10067000C2FD08BD001801400008014000BFFEE7B0
:100680007047000070B5002100230F22C47804B326
:10069000154C246804F4E064C4F5E064210AC1F157
:1006A0000403CA40447804FA03F1847814402143D7
:1006B00009010E4C0678A155047804F01F050124A9
:1006C000AC4005786D11AD0005F1E025C5F800419D
:1006D00009E0047804F01F050124AC40044D0678BD
:1006E000761145F8264070BD0CED00E000E400E016
:1006F00080E100E002490143024A116070470000B6
:100700000000FA050CED00E010B5002000F001F843
:1007100010BD70B50646002415E004F1B001C8B262
:1007200000F07DFF002000F07AFF102000F077FF3E
:10073000002504E0304600F079FF681CC5B2802D2A
:10074000F8DB601CC4B2082CE7DB70BD10B5642078
:1007500001F07AF8AE2000F062FF202000F05FFF89
:10076000102000F05CFFB02000F059FFC82000F01E
:1007700056FF002000F053FF102000F050FF4020F3
:1007800000F04DFF812000F04AFFFF2000F047FFFE
:10079000A12000F044FFA62000F041FFA82000F0B7
:1007A0003EFF3F2000F03BFFA42000F038FFD320A5
:1007B00000F035FF002000F032FFD52000F02FFFC1
:1007C000F02000F02CFFD92000F029FF222000F0BB
:1007D00026FFDA2000F023FF122000F020FFDB20AC
:1007E00000F01DFF202000F01AFF8D2000F017FF01
:1007F000142000F014FFAF2000F011FF10BD70B501
:1008000004460D4605F1B001C8B200F008FF102102
:1008100041EA141000F003FF04F00F0141F0010061
:1008200000F0FDFE70BD00002DE9F0470646894648
:1008300017469A464FF0000800240025BAF1010F30
:1008400003D0BAF1020F5ED125E020E0785D2038B8
:1008500000F0FF087E2E04DD002609F1010000F003
:10086000FF0949463046FFF7CAFF002409E008EBBC
:100870004801264A02EB4101085D00F0D7FE601CEA
:10088000C4B2062CF3DBB01DC6B2681CC5B2785DDD
:100890000028DBD137E032E0785D203800F0FF0837
:1008A000782E04DD002609F1010000F0FF09494619
:1008B0003046FFF7A4FF002407E004EB0811144AB8
:1008C000505C00F0B3FE601CC4B2082CF5DB09F1EB
:1008D0000100C1B23046FFF792FF002408E004EBAC
:1008E000081108310A4A505C00F0A0FE601CC4B236
:1008F000082CF4DB06F10800C6B2681CC5B2785DAE
:100900000028C9D100BF00BFBDE8F087C81B0008A0
:10091000F01D0008014908627047000000000E4207
:100920007047000029B1064AD2690243044BDA61DC
:1009300004E0034AD2698243014BDA617047000048
:100940000010024029B1064A12690243044B1A61A1
:1009500004E0034A12698243014B1A6170470000A8
:100960000010024029B1064A92690243044B9A6181
:1009700004E0034A92698243014B9A617047000088
:1009800000100240014908607047000040044242E4
:1009900030B500210022002400232D4D6D6805F0A4
:1009A0000C0121B1042905D0082923D105E0294DE6
:1009B000056022E0274D05601FE0254D6D6805F4B8
:1009C0007012234D6D6805F48034022505EB9242C8
:1009D0001CB9214D554305600BE01D4D6D6805F4B4
:1009E00000351DB11C4D5543056002E0194D5543BE
:1009F000056002E0174D056000BF00BF144D6D6833
:100A000005F0F0010909154D6B5C0568DD40456096
:100A10000F4D6D6805F4E061090A104D6B5C456887
:100A2000DD4085600A4D6D6805F46051C90A0B4DC3
:100A30006B5C4568DD40C560054D6D6805F440415F
:100A4000890B074D6B5CC568B5FBF3F5056130BDDF
:100A50000010024000127A0000093D001E00002034
:100A60002E00002010B501460022002300204A116C
:100A7000012A02D1094C236806E0022A02D1074C60
:100A8000236A01E0054C636A01F01F0201249440CF
:100A90001C400CB1012000E0002010BD00100240FD
:100AA00000210B4A11700A4A203A82F820100128CE
:100AB00002D0042808D103E00121054A117004E0A6
:100AC0000521034A117000E000BF00BF704700001D
:100AD0002010024001490860704700003C04424277
:100AE0000249096A0143014A11627047001002403D
:100AF000024909888143014A118070470428004057
:100B00000348008840F01000014908807047000049
:100B100004280040034800884FF6EF71084001495F
:100B2000088070470428004070B500260024002586
:100B300000F07EF806463A48B6FBF0F439480088E3
:100B4000A0423ED037490C8040F2B27510E02846F2
:100B5000FFF758FD40B1B4F5B77F02D3A4F5B774E1
:100B600004E0681C85B206E0A4F26D14681C85B22E
:100B7000B4F5B67FEBD800BF28B22B49888000259A
:100B800017E02949898888B2FFF73CFD30B1012D73
:100B900004D11D2C01D31D3C09E00CE02348405D2D
:100BA000A04203D82148405D241A00E003E0681CFD
:100BB00085B21C2CE5D200BF681C1B498871601CE3
:100BC000C8711748B6FBF0F100FB11644FF4616087
:100BD000B4FBF0F0144908704FF46160B4FBF0F11D
:100BE00000FB11403C21B0FBF1F00F4948704FF47D
:100BF0006160B4FBF0F100FB11403C21B0FBF1F26D
:100C000001FB1200084988700B46DA7999799B88B4
:100C100098B200F029F804490872002070BD000065
:100C200080510100320000202E010020EC2300083A
:100C3000002103480188001F008841EA00407047F6
:100C40001C28004001460020064A12880A40D0B203
:100C5000044A121F12880A4012B108B1012000E0B4
:100C60000020704704280040F0B503460C461546A6
:100C7000642093FBF0F0C6B2642093FBF0F700FB16
:100C80001730C1B2132E02DD01F16400C1B2084673
:100C9000CF1701EB977701EBA707BAB2072092FBBA
:100CA000F0F700FB172082B25719601EDFF82CC046
:100CB0001CF80000384482B2CF1701EB9777BF10C1
:100CC000A1EB87071FB9032C01DA501E82B207205F
:100CD00092FBF0F700FB1720C0B2F0BDE023000844
:100CE0000EB50120FFF7AEFF08B1FFF71DFF022090
:100CF000FFF7A8FFA8B10220FFF7FAFEFFF714FFE5
:100D00000B4880780A494978094A1278CDE90021D0
:100D100002900748C3798279B0F9041005A000F069
:100D20008DFC0520FFF7E4FE00F016F90EBD000073
:100D30002E010020416C61726D2054696D653A2569
:100D4000642D25642D25642025643A25643A2564A4
:100D50000A00000029B1064A12880243044B1A8097
:100D600004E0034A12888243014B1A807047000056
:100D7000002800401CB5002401214FF0C050FFF7AF
:100D8000D1FD0120FFF7C6FD0420FFF715FA45F25B
:100D9000510188423FD0FFF707FA0120FFF780FE9C
:100DA00004E0601CC4B20A2000F04EFD4120FFF7B1
:100DB00059FE08B9FA2CF4DBFA2C01DB01201CBD2A
:100DC0004FF48070FFF78CFE0120FFF783FE00F0E8
:100DD000C3F800F0CBF801210846FFF7BBFF00F095
:100DE000BBF8FFF78DFE47F6FF7000F0A5F800F0A6
:100DF000B3F800200090034601221146019040F212
:100E0000E57000F027F8FFF785FE45F25101042058
:100E1000FFF7E0F907E000F0A9F801210846FFF725
:100E200099FF00F099F800F004F8FFF77DFE00202C
:100E3000C5E708B503208DF8000000208DF80100FB
:100E40008DF8020001208DF803006846FFF71AFCB8
:100E500008BD00002DE9F05F06460F469046994612
:100E6000DDE90AAB002440F2B270864203DB40F6B3
:100E70003300864202DD0120BDE8F09F40F2B275EA
:100E80000AE02846FFF7BEFB10B12048044401E009
:100E90001F480444681C85B2B542F2DB781EC7B215
:100EA000002510E01B48405D40F2A321484304EBBD
:100EB000C0143046FFF7A6FB18B1012D01D116482A
:100EC0000444681C85B2BD42ECDBA8F1010040F28D
:100ED000A321484304EBC014C9EB4910C0EB09201F
:100EE00004EB0014CAEB0A1004EB80045C440121FB
:100EF0004FF0C050FFF716FD0120FFF70BFD204615
:100F000000F00CF800F028F80020B5E70085E201B9
:100F10008033E101EC2300088051010000B5024656
:100F2000FFF7EEFD100C03490880091D0A80FFF74A
:100F3000F1FD00BD1828004000B50246FFF7E0FDB6
:100F4000C2F3034003490880091D0A80FFF7E2FD50
:100F500000BD00000828004000BF0348008800F0E2
:100F600020000028F9D07047042800400748008876
:100F70004FF6F77108400549088000BF0348008814
:100F800000F008000028F9D0704700000428004055
:100F900070472DE9F0418EB080460E4600270024B0
:100FA0003046FFF7D1F8C5B2FD208DF804000020CF
:100FB0008DF80500E81CC0B28DF8060001208DF800
:100FC000070040EA0810C0B28DF8080000BF03E037
:100FD00001A8005D4740641C052CF9D3002402E001
:100FE000305D4740641CAC42FAD32A4631460DF1CD
:100FF0000900FFF797F8681D01A90F54A81DC1B299
:1010000001A800F02FFA0EB0BDE8F08110B500F095
:1010100001F810BD0CB50020019000903348006825
:1010200040F480303149086000BF3048006800F467
:10103000003000900198401C0190009818B9019868
:10104000B0F5A06FF1D12948006800F4003010B16C
:101050000120009001E0002000900098012843D179
:101060002348006840F010002149086008460068E5
:1010700020F0030008600846006840F002000860A5
:101080001A48406819494860084640684860084660
:10109000406840F4806048600846406820F47C1056
:1010A00048600846406840F4E81048600846006818
:1010B00040F08070086000BF0C48006800F00070CD
:1010C0000028F9D00948406820F00300074948602B
:1010D0000846406840F00200486000BF034840688E
:1010E00000F00C000828F9D10CBD000000100240EF
:1010F00000200240042808D14FF0E021096941F0A6
:1011000004014FF0E022116107E04FF0E02109698E
:1011100021F004014FF0E022116170477047000098
:1011200010B51348006840F00100114908600846F6
:101130004068104908400E494860084600680E495A
:1011400008400B4908600846006820F480200860C9
:101150000846406820F4FE0048604FF41F00886095
:10116000FFF754FF4FF000600449086010BD000015
:10117000001002400000FFF8FFFFF6FE08ED00E05F
:1011800010B50121094800F054F868B108480088FA
:1011900040F40040064908800121044800F03AF874
:1011A0000021024800F039F810BD000000040040A2
:1011B0001C0000207FB505460C4601210220FFF7E8
:1011C000B1FBADF80450ADF800400020ADF80600CA
:1011D000ADF8020069460E4800F048F801221146B9
:1011E0000B4800F037F80121094800F016F81D20DF
:1011F0008DF80C0000208DF80D0002208DF80E00F7
:1012000001208DF80F0003A8FFF73CFA7FBD000016
:1012100000040040CA430282704721B1028842F0B4
:101220000102028004E002884FF6FE731A40028039
:10123000704730B50246002000230024158A05EAD5
:101240000103958905EA010413B10CB1012000E006
:10125000002030BD1AB183890B43838102E083896A
:101260008B4383817047818470470000002202888D
:101270001D4B98420ED01D4B98420BD0B0F1804FC1
:1012800008D01B4B984205D01A4B984202D01A4BFB
:10129000984204D14FF68F731A404B881A43174B6C
:1012A000984207D0164B984204D04FF6FF431A409D
:1012B000CB881A4302808B8883850B8803850A4B71
:1012C00098420BD0094B984208D00E4B984205D05B
:1012D0000D4B984202D00D4B984201D10B7A0386F8
:1012E0000123838270470000002C0140003401403C
:1012F0000004004000080040000C004000100040C6
:1013000000140040004001400044014000480140FA
:1013100010B540F22551164800F0BEF8F8B1144857
:1013200000F076F9C4B21348008800F40040B0B968
:1013300010480088C82813DA00210F48FFF793FFF0
:101340000C48008818B901210B48FFF766FF0948CF
:1013500001880088401C074A10800848445405E072
:101360000448008840F400400249088010BD000095
:10137000004800401C0000200004004066000020DF
:1013800010B586B0044601210820FFF7EBFA0121D1
:101390008804FFF7C7FA4FF48060ADF8140003200B
:1013A0008DF8160018208DF8170005A92248FEF7C1
:1013B00022FF4FF40060ADF8140004208DF81700F0
:1013C00005A91D48FEF717FF27208DF80000032010
:1013D0008DF801008DF8020001208DF803006846A9
:1013E000FFF750F901940020ADF80800ADF80A00AD
:1013F000ADF80C00ADF810000C20ADF80E0001A9FE
:101400000E4800F099F8012240F225510B4800F0F7
:101410006DF80121094800F033F841F61F416320BF
:10142000FFF7C8FE00200649088000210548FFF7A5
:10143000F4FE06B010BD0000000C01400048004062
:101440001C0000200004004000BF0549098801F08D
:1014500040010029F9D00249091D088070470000A9
:101460000048004030B502460B46002405E012F863
:10147000010BFFF7E9FF601CC4B29C42F7DB30BDF3
:1014800021B1828942F40052828104E082894DF6C2
:10149000FF731A408281704770B502460024002312
:1014A0000025002040F66A16B14200D100BFC1F30A
:1014B000421501F01F03012606FA03F3012D02D1A4
:1014C0009689334006E0022D02D1168A334001E0AE
:1014D000968A33400C12012606FA04F4168834402A
:1014E00013B10CB1012000E0002070BDF0B503463F
:1014F000002400260025002040F66A17B94200D1DA
:1015000000BF1846C1F3421401F01F06012707FA75
:1015100006F5012C01D10C3004E0022C01D1103071
:1015200000E014301AB107682F43076002E0076833
:10153000AF430760F0BD00002DE9F04786B00546D7
:101540000E460024A24600BFA1460027B08900B184
:1015500000BF2F462C8A4CF6FF700440F0880443ED
:101560002C82AC894EF6F3100440B08831890843D0
:10157000718908430443AC81AC8A4FF6FF400440B4
:10158000B0890443AC8201A8FFF702FA1F488742E2
:1015900002D1DDF810A001E0DDF80CA0A88900F46C
:1015A000004040B10AEBCA0000EB0A103168490064
:1015B000B0FBF1F807E00AEBCA0000EB0A10316853
:1015C0008900B0FBF1F86420B8FBF0F004012009B9
:1015D000642101FB1089A88900F4004040B1322049
:1015E00000EBC900B0FBF1F000F00700044308E095
:1015F000322000EB09106421B0FBF1F000F00F0085
:1016000004432C8106B0BDE8F0870000003801409B
:1016100001468888C0F30800704700BFFEE710B598
:10162000044621460020FEF7A7FF10BD10B5044672
:1016300021464020FEF7A0FF10BD00000FB4054B6F
:1016400010B503A9044A029800F02CF810BC5DF80C
:1016500014FB000001190008180000200FB4084B0B
:1016600010B504A902AA039800F01CF8044602A9C8
:10167000002000F0C1F8204610BC5DF814FB00000B
:10168000F917000802E008C8121F08C1002AFAD1A1
:1016900070477047002001E001C1121F002AFBD1F2
:1016A000704700002DE9FF4F89B09B460446002596
:1016B00006E025280BD05A460B999047641C6D1CF8
:1016C00020780028F5D10DB02846BDE8F08F00271E
:1016D000B8460122474900E0074314F8013F203B88
:1016E00002FA03F00842F7D120782E2819D114F815
:1016F000010F47F004072A280ED06FF02F02207840
:10170000A0F1300109290CD808EB880102EB410156
:1017100000EB0108641CF2E70A98641C50F8048B83
:101720000A9020780028CED0642808D0692806D0F6
:1017300075281ED05A460B9990476D1C58E00A999F
:101740004FF00A0901C90A91002802DA40422D210E
:1017500002E0390504D52B218DF82010012103E08A
:10176000F90704D02021F7E78A4608AE0DE00021F2
:10177000FAE70A994FF00A0901C90A91F7E74946C1
:10178000FEF7E9FC303106F8011D0028F7D1ADEB7A
:10179000060000F12009780701D44FF00108C84580
:1017A00002DDA8EB090000E000208046002706E0EB
:1017B00008A85A46C05D0B9990476D1C7F1C574581
:1017C000F6DB04E030205A460B9990476D1CB8F1C7
:1017D0000001A8F10108F5DC05E016F8010B5A46F6
:1017E0000B9990476D1CB9F10001A9F10109F4DCD6
:1017F000641C65E7092801000A68531C0B6010701F
:101800007047000010B56FF00400FFF773FC0A4842
:1018100000680A49B0FBF1F00949087008460078F1
:1018200000EB4001C1EBC0104FF6FF7101EAC000B0
:101830000449088010BD00000000002000127A005A
:1018400014000020160000200146114A12884A4365
:101850004FF0E0235A6100229A611A46126942F061
:1018600001021A6100BF4FF0E022106900F001028E
:101870001AB100F48032002AF5D04FF0E02212694C
:1018800022F001024FF0E0231A6100229A617047B2
:101890001600002010B508A0FFF7D0FE0CA0FFF73F
:1018A000CDFE0FA0FFF7CAFE11A0FFF7C7FE02A0F2
:1018B000FFF7C4FE10BD00000A3D3D3D3D3D3D3DEE
:1018C0003D3D3D3D3D3D3D3D3D3D3D3D3D0A0000F5
:1018D0003D302EB9A6C4DCBDE7C3E62020200A00B7
:1018E0003D312ED0DEB8C4C8D5C6DA2020200A008B
:1018F0003D322ED0DEB8C4CAB1BCE42020200A009C
:1019000000BF054A128802F04002002AF9D0C2B294
:10191000014B1B1D1A8070470048004000BF4FF468
:10192000A060FEF7E7FEFFF76DFF4FF41650FFF7DC
:1019300027FDFFF71FFAFEF783FEFEF70BFDFEF70C
:1019400005FFFEF7E1FEFFF7A5FF09E000F00EF846
:1019500004490220FFF71DFB03490220FFF719FB92
:10196000F4E70000520000203400002008B545488C
:10197000C079009043488379B0F9042042A14548DA
:10198000FFF76CFE3F48807800903E48437802782D
:1019900041A14448FFF762FE3A4880780A2809DAF4
:1019A0003848807800903748437802783EA13D4817
:1019B000FFF754FE334840780A2817DA3148807818
:1019C00000903048437802783AA13648FFF746FE47
:1019D0002C4880780A2809DA2A488078009029481B
:1019E0004378027836A12F48FFF738FE2548007863
:1019F0000A2834DA23488078009022484378027815
:101A000032A12848FFF72AFE1E4840780A2818DA33
:101A10001C48807800901B48437802782EA121480A
:101A2000FFF71CFE174880780A2818DA15488078D6
:101A300000901448437802782AA11A48FFF70EFE56
:101A40000DE0104880780A2809DA0E488078009066
:101A50000C484378027826A11248FFF7FFFD094B96
:101A6000DA799979187900F049F80123094A0221B5
:101A70001E20FEF7D9FE01230A4A04211E20FEF78C
:101A8000D3FE08BD2E01002025642D25642D25647C
:101A9000000000003400002025643A25643A2564E3
:101AA000000000005200002025643A25643A3025E9
:101AB0006400000025643A3025643A256400000083
:101AC00025643A3025643A30256400003025643AB4
:101AD00025643A25640000003025643A3025643AD4
:101AE000256400003025643A3025643A30256400CE
:101AF0003025643A25643A302564000070B5044608
:101B00000D461646324629462046FFF7ADF807280F
:101B100036D2DFE800F0040B121920272E00012333
:101B200018A203211E20FEF77FFE29E0012317A241
:101B300003211E20FEF778FE22E0012315A20321D7
:101B40001E20FEF771FE1BE0012314A203211E20BC
:101B5000FEF76AFE14E0012313A203211E20FEF704
:101B600063FE0DE0012313A203211E20FEF75CFE9D
:101B700006E0012311A203211E20FEF755FE00BF3F
:101B800000BF70BD53756E64617900004D6F6E6467
:101B90006179000054756573646179005765646EFE
:101BA00065736461790000005468757273646179CB
:101BB0000000000046726964617900005361747529
:101BC0007264617900000000000000000000000065
:101BD000002F000000000700070000147F147F148E
:101BE00000242A7F2A120062640813230036495514
:101BF000225000000503000000001C2241000000EC
:101C000041221C000014083E08140008083E080881
:101C1000000000A0600000080808080800006060DC
:101C20000000002010080402003E5149453E00001B
:101C3000427F4000004261514946002141454B31FD
:101C4000001814127F10002745454539003C4A49C9
:101C5000493000017109050300364949493600063B
:101C60004949291E000036360000000056360000A3
:101C7000000814224100001414141414000041221E
:101C8000140800020151090600324959513E007CF6
:101C90001211127C007F49494936003E41414122E0
:101CA000007F4141221C007F49494941007F0909C9
:101CB0000901003E4149497A007F0808087F000079
:101CC000417F4100002040413F01007F0814224134
:101CD000007F40404040007F020C027F007F0408EC
:101CE000107F003E4141413E007F09090906003E48
:101CF0004151215E007F0919294600464949493171
:101D00000001017F0101003F4040403F001F204093
:101D1000201F003F4038403F006314081463000751
:101D20000870080700615149454300007F414100A8
:101D300000552A552A55000041417F000004020148
:101D40000204004040404040000001020400002026
:101D500054545478007F4844443800384444442064
:101D600000384444487F00385454541800087E0911
:101D700001020018A4A4A47C007F080404780000D9
:101D8000447D4000004080847D00007F1028440096
:101D90000000417F4000007C04180478007C0804A7
:101DA000047800384444443800FC242424180018E3
:101DB000242418FC007C08040408004854545420CF
:101DC00000043F444020003C4040207C001C204058
:101DD000201C003C4030403C004428102844001C9B
:101DE000A0A0A07C004464544C4414141414141493
:101DF00000000000000000000000000000000000E3
:101E0000000000F800000000000000333000000077
:101E100000100C06100C060000000000000000007E
:101E200040C07840C0784000043F04043F040400F0
:101E3000007088FC08300000001820FF211E000000
:101E4000F008F000E018000000211C031E211E0015
:101E500000F00888700000001E212324192721109B
:101E600010160E000000000000000000000000003E
:101E7000000000E0180402000000000718204000E5
:101E800000020418E00000000040201807000000D5
:101E9000404080F0804040000202010F0102020039
:101EA000000000F0000000000101011F010101001D
:101EB000000000000000000080B070000000000082
:101EC000000000000000000000010101010101010B
:101ED00000000000000000000030300000000000A2
:101EE0000000000080601804006018060100000077
:101EF00000E010080810E000000F102020100F0074
:101F0000001010F8000000000020203F20200000FA
:101F10000070080808887000003028242221300052
:101F200000300888884830000018202020110E005A
:101F30000000C02010F8000000070424243F240003
:101F400000F80888880808000019212020110E00D8
:101F500000E0108888180000000F112020110E00EA
:101F600000380808C83808000000003F00000000E2
:101F70000070880808887000001C222121221C00A3
:101F800000E010080810E0000000312222110F00CC
:101F9000000000C0C0000000000000303000000061
:101FA00000000080000000000000806000000000D1
:101FB00000008040201008000001020408102000EA
:101FC0004040404040404000040404040404040035
:101FD00000081020408000000020100804020100CA
:101FE000007048080808F0000000003036010000CA
:101FF000C030C828E810E0000718272423140B007D
:102000000000C038E0000000203C230202273820F6
:1020100008F8888888700000203F202020110E00DA
:10202000C0300808080838000718202020100800D1
:1020300008F808080810E000203F202020100F00BA
:1020400008F88888E8081000203F20202320180086
:1020500008F88888E8081000203F200003000000EE
:10206000C03008080838000007182020221E02008F
:1020700008F808000008F808203F210101213F204E
:10208000000808F8080800000020203F2020000079
:1020900000000808F8080800C08080807F00000069
:1020A00008F888C028180800203F200126382000A2
:1020B00008F8080000000000203F20202020300009
:1020C00008F8F800F8F80800203F003F003F200023
:1020D00008F830C00008F808203F200007183F002B
:1020E000E01008080810E0000F10202020100F005A
:1020F00008F808080808F000203F2101010100004D
:10210000E01008080810E0000F18242438504F0091
:1021100008F8888888887000203F2000030C302051
:1021200000708808080838000038202121221C008F
:10213000180808F8080818000000203F20000000D8
:1021400008F808000008F808001F202020201F00C1
:102150000878880000C83808000007380E01000021
:10216000F80800F80008F800033C0700073C0300EB
:10217000081868808068180820302C03032C302051
:102180000838C800C83808000000203F20000000C0
:1021900010080808C8380800203826212020180018
:1021A000000000FE020202000000007F40404000EC
:1021B000000C30C000000000000000010638C00024
:1021C00000020202FE000000004040407F000000CC
:1021D00000000402020204000000000000000000F1
:1021E00000000000000000008080808080808080EF
:1021F00000020204000000000000000000000000D7
:1022000000008080808000000019242222223F20CC
:1022100008F8008080000000003F112020110E000F
:102220000000008080800000000E1120202011009E
:10223000000000808088F800000E112020103F2050
:102240000000808080800000001F222222221300D4
:10225000008080F0888888180020203F202000001F
:102260000000808080808000006B949494936000D4
:1022700008F8008080800000203F210000203F20DF
:1022800000809898000000000020203F20200000DF
:10229000000000809898000000C08080807F0000CF
:1022A00008F8000080808000203F24022D302000AC
:1022B000000808F8000000000020203F2020000057
:1022C0008080808080808000203F20003F20003F71
:1022D0008080008080800000203F210000203F207F
:1022E0000000808080800000001F202020201F0030
:1022F000808000808000000080FFA12020110E005F
:102300000000008080808000000E112020A0FF804F
:10231000808080008080800020203F2120000100FC
:102320000000808080808000003324242424190051
:10233000008080E0808000000000001F202000005E
:102340008080000000808000001F202020103F209F
:10235000808080000080808000010E30080601002F
:1023600080800080008080800F300C030C300F00D4
:1023700000808000808080000020312E0E312000FF
:10238000808080000080808080818E70180601002F
:1023900000808080808080000021302C222130004D
:1023A00000000000807C020200000000003F40406E
:1023B00000000000FF00000000000000FF0000001F
:1023C0000002027C800000000040403F000000004E
:1023D00000060101020204040000000000000000E9
:1023E0000003030601040602050003051F1C1F1E4F
:1023F0001F1E1F1F1E1F1E1F182400080000002084
:1024000034000000841600084C240008340000202A
:10241000040500009416000800A24A040000000011
:102420000000000001020304060708090000000084
:10243000000000000000000000000102030401028F
:0C24400003040607080902040608000057
:0400000508000101ED
:00000001FF
